{
  "_format": "hh-sol-artifact-1",
  "contractName": "F1_NFT",
  "sourceName": "contracts/F1_NFT.sol",
  "abi": [
    {
      "inputs": [
        {
          "internalType": "uint256",
          "name": "_whiteListPrice",
          "type": "uint256"
        },
        {
          "internalType": "uint256",
          "name": "_mainSalePrice",
          "type": "uint256"
        }
      ],
      "stateMutability": "nonpayable",
      "type": "constructor"
    },
    {
      "anonymous": false,
      "inputs": [
        {
          "indexed": true,
          "internalType": "address",
          "name": "owner",
          "type": "address"
        },
        {
          "indexed": true,
          "internalType": "address",
          "name": "approved",
          "type": "address"
        },
        {
          "indexed": true,
          "internalType": "uint256",
          "name": "tokenId",
          "type": "uint256"
        }
      ],
      "name": "Approval",
      "type": "event"
    },
    {
      "anonymous": false,
      "inputs": [
        {
          "indexed": true,
          "internalType": "address",
          "name": "owner",
          "type": "address"
        },
        {
          "indexed": true,
          "internalType": "address",
          "name": "operator",
          "type": "address"
        },
        {
          "indexed": false,
          "internalType": "bool",
          "name": "approved",
          "type": "bool"
        }
      ],
      "name": "ApprovalForAll",
      "type": "event"
    },
    {
      "anonymous": false,
      "inputs": [
        {
          "indexed": true,
          "internalType": "address",
          "name": "from",
          "type": "address"
        },
        {
          "indexed": true,
          "internalType": "address",
          "name": "to",
          "type": "address"
        },
        {
          "indexed": true,
          "internalType": "uint256",
          "name": "tokenId",
          "type": "uint256"
        }
      ],
      "name": "Transfer",
      "type": "event"
    },
    {
      "inputs": [],
      "name": "MAIN_SALE_NFT_LIMIT",
      "outputs": [
        {
          "internalType": "uint256",
          "name": "",
          "type": "uint256"
        }
      ],
      "stateMutability": "view",
      "type": "function"
    },
    {
      "inputs": [],
      "name": "MAX_MAIN_MINT_AMOUNT",
      "outputs": [
        {
          "internalType": "uint256",
          "name": "",
          "type": "uint256"
        }
      ],
      "stateMutability": "view",
      "type": "function"
    },
    {
      "inputs": [],
      "name": "MAX_WHITELIST_MINT_AMOUNT",
      "outputs": [
        {
          "internalType": "uint256",
          "name": "",
          "type": "uint256"
        }
      ],
      "stateMutability": "view",
      "type": "function"
    },
    {
      "inputs": [],
      "name": "WHITELIST_NFT_LIMIT",
      "outputs": [
        {
          "internalType": "uint256",
          "name": "",
          "type": "uint256"
        }
      ],
      "stateMutability": "view",
      "type": "function"
    },
    {
      "inputs": [
        {
          "internalType": "address[]",
          "name": "addresses",
          "type": "address[]"
        }
      ],
      "name": "addToWhiteList",
      "outputs": [],
      "stateMutability": "nonpayable",
      "type": "function"
    },
    {
      "inputs": [
        {
          "internalType": "address",
          "name": "to",
          "type": "address"
        },
        {
          "internalType": "uint256",
          "name": "tokenId",
          "type": "uint256"
        }
      ],
      "name": "approve",
      "outputs": [],
      "stateMutability": "nonpayable",
      "type": "function"
    },
    {
      "inputs": [
        {
          "internalType": "address",
          "name": "owner",
          "type": "address"
        }
      ],
      "name": "balanceOf",
      "outputs": [
        {
          "internalType": "uint256",
          "name": "",
          "type": "uint256"
        }
      ],
      "stateMutability": "view",
      "type": "function"
    },
    {
      "inputs": [
        {
          "internalType": "uint256",
          "name": "tokenId",
          "type": "uint256"
        }
      ],
      "name": "getApproved",
      "outputs": [
        {
          "internalType": "address",
          "name": "",
          "type": "address"
        }
      ],
      "stateMutability": "view",
      "type": "function"
    },
    {
      "inputs": [
        {
          "internalType": "address",
          "name": "owner",
          "type": "address"
        },
        {
          "internalType": "address",
          "name": "operator",
          "type": "address"
        }
      ],
      "name": "isApprovedForAll",
      "outputs": [
        {
          "internalType": "bool",
          "name": "",
          "type": "bool"
        }
      ],
      "stateMutability": "view",
      "type": "function"
    },
    {
      "inputs": [
        {
          "internalType": "uint256",
          "name": "nftAmountToMint",
          "type": "uint256"
        }
      ],
      "name": "mainSaleMint",
      "outputs": [],
      "stateMutability": "payable",
      "type": "function"
    },
    {
      "inputs": [],
      "name": "mainSalePrice",
      "outputs": [
        {
          "internalType": "uint256",
          "name": "",
          "type": "uint256"
        }
      ],
      "stateMutability": "view",
      "type": "function"
    },
    {
      "inputs": [],
      "name": "name",
      "outputs": [
        {
          "internalType": "string",
          "name": "",
          "type": "string"
        }
      ],
      "stateMutability": "view",
      "type": "function"
    },
    {
      "inputs": [],
      "name": "owner",
      "outputs": [
        {
          "internalType": "address",
          "name": "",
          "type": "address"
        }
      ],
      "stateMutability": "view",
      "type": "function"
    },
    {
      "inputs": [
        {
          "internalType": "uint256",
          "name": "tokenId",
          "type": "uint256"
        }
      ],
      "name": "ownerOf",
      "outputs": [
        {
          "internalType": "address",
          "name": "",
          "type": "address"
        }
      ],
      "stateMutability": "view",
      "type": "function"
    },
    {
      "inputs": [
        {
          "internalType": "address",
          "name": "from",
          "type": "address"
        },
        {
          "internalType": "address",
          "name": "to",
          "type": "address"
        },
        {
          "internalType": "uint256",
          "name": "tokenId",
          "type": "uint256"
        }
      ],
      "name": "safeTransferFrom",
      "outputs": [],
      "stateMutability": "nonpayable",
      "type": "function"
    },
    {
      "inputs": [
        {
          "internalType": "address",
          "name": "from",
          "type": "address"
        },
        {
          "internalType": "address",
          "name": "to",
          "type": "address"
        },
        {
          "internalType": "uint256",
          "name": "tokenId",
          "type": "uint256"
        },
        {
          "internalType": "bytes",
          "name": "_data",
          "type": "bytes"
        }
      ],
      "name": "safeTransferFrom",
      "outputs": [],
      "stateMutability": "nonpayable",
      "type": "function"
    },
    {
      "inputs": [
        {
          "internalType": "address",
          "name": "operator",
          "type": "address"
        },
        {
          "internalType": "bool",
          "name": "approved",
          "type": "bool"
        }
      ],
      "name": "setApprovalForAll",
      "outputs": [],
      "stateMutability": "nonpayable",
      "type": "function"
    },
    {
      "inputs": [
        {
          "internalType": "uint256",
          "name": "price",
          "type": "uint256"
        }
      ],
      "name": "setMainSalePrice",
      "outputs": [],
      "stateMutability": "nonpayable",
      "type": "function"
    },
    {
      "inputs": [
        {
          "internalType": "bytes4",
          "name": "interfaceId",
          "type": "bytes4"
        }
      ],
      "name": "supportsInterface",
      "outputs": [
        {
          "internalType": "bool",
          "name": "",
          "type": "bool"
        }
      ],
      "stateMutability": "view",
      "type": "function"
    },
    {
      "inputs": [],
      "name": "symbol",
      "outputs": [
        {
          "internalType": "string",
          "name": "",
          "type": "string"
        }
      ],
      "stateMutability": "view",
      "type": "function"
    },
    {
      "inputs": [],
      "name": "tokenID",
      "outputs": [
        {
          "internalType": "uint256",
          "name": "",
          "type": "uint256"
        }
      ],
      "stateMutability": "view",
      "type": "function"
    },
    {
      "inputs": [
        {
          "internalType": "uint256",
          "name": "tokenId",
          "type": "uint256"
        }
      ],
      "name": "tokenURI",
      "outputs": [
        {
          "internalType": "string",
          "name": "",
          "type": "string"
        }
      ],
      "stateMutability": "view",
      "type": "function"
    },
    {
      "inputs": [
        {
          "internalType": "address",
          "name": "from",
          "type": "address"
        },
        {
          "internalType": "address",
          "name": "to",
          "type": "address"
        },
        {
          "internalType": "uint256",
          "name": "tokenId",
          "type": "uint256"
        }
      ],
      "name": "transferFrom",
      "outputs": [],
      "stateMutability": "nonpayable",
      "type": "function"
    },
    {
      "inputs": [
        {
          "internalType": "address",
          "name": "",
          "type": "address"
        }
      ],
      "name": "whiteListAddresses",
      "outputs": [
        {
          "internalType": "bool",
          "name": "",
          "type": "bool"
        }
      ],
      "stateMutability": "view",
      "type": "function"
    },
    {
      "inputs": [
        {
          "internalType": "uint256",
          "name": "nftAmountToMint",
          "type": "uint256"
        }
      ],
      "name": "whiteListMint",
      "outputs": [],
      "stateMutability": "payable",
      "type": "function"
    },
    {
      "inputs": [],
      "name": "whiteListPrice",
      "outputs": [
        {
          "internalType": "uint256",
          "name": "",
          "type": "uint256"
        }
      ],
      "stateMutability": "view",
      "type": "function"
    }
  ],
  "bytecode": "0x60806040523480156200001157600080fd5b50604051620036203803806200362083398181016040528101906200003791906200021e565b6040518060400160405280600681526020017f66315f44414f00000000000000000000000000000000000000000000000000008152506040518060400160405280600281526020017f66310000000000000000000000000000000000000000000000000000000000008152508160009080519060200190620000bb9291906200012e565b508060019080519060200190620000d49291906200012e565b50505033600660006101000a81548173ffffffffffffffffffffffffffffffffffffffff021916908373ffffffffffffffffffffffffffffffffffffffff16021790555081600781905550806008819055505050620002ca565b8280546200013c9062000294565b90600052602060002090601f016020900481019282620001605760008555620001ac565b82601f106200017b57805160ff1916838001178555620001ac565b82800160010185558215620001ac579182015b82811115620001ab5782518255916020019190600101906200018e565b5b509050620001bb9190620001bf565b5090565b5b80821115620001da576000816000905550600101620001c0565b5090565b600080fd5b6000819050919050565b620001f881620001e3565b81146200020457600080fd5b50565b6000815190506200021881620001ed565b92915050565b60008060408385031215620002385762000237620001de565b5b6000620002488582860162000207565b92505060206200025b8582860162000207565b9150509250929050565b7f4e487b7100000000000000000000000000000000000000000000000000000000600052602260045260246000fd5b60006002820490506001821680620002ad57607f821691505b60208210811415620002c457620002c362000265565b5b50919050565b61334680620002da6000396000f3fe6080604052600436106101815760003560e01c80638da5cb5b116100d1578063aa1430231161008a578063c87b56dd11610064578063c87b56dd14610568578063e985e9c5146105a5578063f07bba65146105e2578063fd0e68fd1461060b57610181565b8063aa143023146104e9578063aef19d2f14610514578063b88d4fde1461053f57610181565b80638da5cb5b146103e6578063920674dc1461041157806395d89b411461044e578063a22cb46514610479578063a3db27e2146104a2578063a5c42ef1146104be57610181565b80631f9d87831161013e5780636352211e116101185780636352211e14610318578063685756851461035557806370a0823114610380578063740d73f3146103bd57610181565b80631f9d87831461029b57806323b872dd146102c657806342842e0e146102ef57610181565b806301ffc9a71461018657806302e001ef146101c3578063040c2fc3146101df57806306fdde031461020a578063081812fc14610235578063095ea7b314610272575b600080fd5b34801561019257600080fd5b506101ad60048036038101906101a89190611eba565b610636565b6040516101ba9190611f02565b60405180910390f35b6101dd60048036038101906101d89190611f53565b610718565b005b3480156101eb57600080fd5b506101f4610769565b6040516102019190611f8f565b60405180910390f35b34801561021657600080fd5b5061021f61076e565b60405161022c9190612043565b60405180910390f35b34801561024157600080fd5b5061025c60048036038101906102579190611f53565b610800565b60405161026991906120a6565b60405180910390f35b34801561027e57600080fd5b50610299600480360381019061029491906120ed565b610885565b005b3480156102a757600080fd5b506102b061099d565b6040516102bd9190611f8f565b60405180910390f35b3480156102d257600080fd5b506102ed60048036038101906102e8919061212d565b6109a3565b005b3480156102fb57600080fd5b506103166004803603810190610311919061212d565b610a03565b005b34801561032457600080fd5b5061033f600480360381019061033a9190611f53565b610a23565b60405161034c91906120a6565b60405180910390f35b34801561036157600080fd5b5061036a610ad5565b6040516103779190611f8f565b60405180910390f35b34801561038c57600080fd5b506103a760048036038101906103a29190612180565b610adb565b6040516103b49190611f8f565b60405180910390f35b3480156103c957600080fd5b506103e460048036038101906103df9190612212565b610b93565b005b3480156103f257600080fd5b506103fb610cc8565b60405161040891906120a6565b60405180910390f35b34801561041d57600080fd5b5061043860048036038101906104339190612180565b610cee565b6040516104459190611f02565b60405180910390f35b34801561045a57600080fd5b50610463610d0e565b6040516104709190612043565b60405180910390f35b34801561048557600080fd5b506104a0600480360381019061049b919061228b565b610da0565b005b6104bc60048036038101906104b79190611f53565b610db6565b005b3480156104ca57600080fd5b506104d3610e17565b6040516104e09190611f8f565b60405180910390f35b3480156104f557600080fd5b506104fe610e1d565b60405161050b9190611f8f565b60405180910390f35b34801561052057600080fd5b50610529610e22565b6040516105369190611f8f565b60405180910390f35b34801561054b57600080fd5b50610566600480360381019061056191906123fb565b610e28565b005b34801561057457600080fd5b5061058f600480360381019061058a9190611f53565b610e8a565b60405161059c9190612043565b60405180910390f35b3480156105b157600080fd5b506105cc60048036038101906105c7919061247e565b610f31565b6040516105d99190611f02565b60405180910390f35b3480156105ee57600080fd5b5061060960048036038101906106049190611f53565b610fc5565b005b34801561061757600080fd5b5061062061105f565b60405161062d9190611f8f565b60405180910390f35b60007f80ac58cd000000000000000000000000000000000000000000000000000000007bffffffffffffffffffffffffffffffffffffffffffffffffffffffff1916827bffffffffffffffffffffffffffffffffffffffffffffffffffffffff1916148061070157507f5b5e139f000000000000000000000000000000000000000000000000000000007bffffffffffffffffffffffffffffffffffffffffffffffffffffffff1916827bffffffffffffffffffffffffffffffffffffffffffffffffffffffff1916145b80610711575061071082611065565b5b9050919050565b6107238134336110cf565b600a6000815480929190610736906124ed565b919050555060005b818110156107655761075233600a54611303565b808061075d906124ed565b91505061073e565b5050565b600581565b60606000805461077d90612565565b80601f01602080910402602001604051908101604052809291908181526020018280546107a990612565565b80156107f65780601f106107cb576101008083540402835291602001916107f6565b820191906000526020600020905b8154815290600101906020018083116107d957829003601f168201915b5050505050905090565b600061080b826114d1565b61084a576040517f08c379a000000000000000000000000000000000000000000000000000000000815260040161084190612609565b60405180910390fd5b6004600083815260200190815260200160002060009054906101000a900473ffffffffffffffffffffffffffffffffffffffff169050919050565b600061089082610a23565b90508073ffffffffffffffffffffffffffffffffffffffff168373ffffffffffffffffffffffffffffffffffffffff161415610901576040517f08c379a00000000000000000000000000000000000000000000000000000000081526004016108f89061269b565b60405180910390fd5b8073ffffffffffffffffffffffffffffffffffffffff1661092061153d565b73ffffffffffffffffffffffffffffffffffffffff16148061094f575061094e8161094961153d565b610f31565b5b61098e576040517f08c379a00000000000000000000000000000000000000000000000000000000081526004016109859061272d565b60405180910390fd5b6109988383611545565b505050565b61251c81565b6109b46109ae61153d565b826115fe565b6109f3576040517f08c379a00000000000000000000000000000000000000000000000000000000081526004016109ea906127bf565b60405180910390fd5b6109fe8383836116dc565b505050565b610a1e83838360405180602001604052806000815250610e28565b505050565b6000806002600084815260200190815260200160002060009054906101000a900473ffffffffffffffffffffffffffffffffffffffff169050600073ffffffffffffffffffffffffffffffffffffffff168173ffffffffffffffffffffffffffffffffffffffff161415610acc576040517f08c379a0000000000000000000000000000000000000000000000000000000008152600401610ac390612851565b60405180910390fd5b80915050919050565b60075481565b60008073ffffffffffffffffffffffffffffffffffffffff168273ffffffffffffffffffffffffffffffffffffffff161415610b4c576040517f08c379a0000000000000000000000000000000000000000000000000000000008152600401610b43906128e3565b60405180910390fd5b600360008373ffffffffffffffffffffffffffffffffffffffff1673ffffffffffffffffffffffffffffffffffffffff168152602001908152602001600020549050919050565b600660009054906101000a900473ffffffffffffffffffffffffffffffffffffffff1673ffffffffffffffffffffffffffffffffffffffff163373ffffffffffffffffffffffffffffffffffffffff1614610c23576040517f08c379a0000000000000000000000000000000000000000000000000000000008152600401610c1a90612975565b60405180910390fd5b60005b82829050811015610cc357600160096000858585818110610c4a57610c49612995565b5b9050602002016020810190610c5f9190612180565b73ffffffffffffffffffffffffffffffffffffffff1673ffffffffffffffffffffffffffffffffffffffff16815260200190815260200160002060006101000a81548160ff0219169083151502179055508080610cbb906124ed565b915050610c26565b505050565b600660009054906101000a900473ffffffffffffffffffffffffffffffffffffffff1681565b60096020528060005260406000206000915054906101000a900460ff1681565b606060018054610d1d90612565565b80601f0160208091040260200160405190810160405280929190818152602001828054610d4990612565565b8015610d965780601f10610d6b57610100808354040283529160200191610d96565b820191906000526020600020905b815481529060010190602001808311610d7957829003601f168201915b5050505050905090565b610db2610dab61153d565b8383611938565b5050565b610dc18134336110cf565b60005b81811015610e1357610dd833600a54611303565b6000610de5600a54610e8a565b9050600a6000815480929190610dfa906124ed565b9190505550508080610e0b906124ed565b915050610dc4565b5050565b600a5481565b600881565b60085481565b610e39610e3361153d565b836115fe565b610e78576040517f08c379a0000000000000000000000000000000000000000000000000000000008152600401610e6f906127bf565b60405180910390fd5b610e8484848484611aa5565b50505050565b6060610e95826114d1565b610ed4576040517f08c379a0000000000000000000000000000000000000000000000000000000008152600401610ecb90612a36565b60405180910390fd5b6000610ede611b01565b90506000815111610efe5760405180602001604052806000815250610f29565b80610f0884611b3e565b604051602001610f19929190612a92565b6040516020818303038152906040525b915050919050565b6000600560008473ffffffffffffffffffffffffffffffffffffffff1673ffffffffffffffffffffffffffffffffffffffff16815260200190815260200160002060008373ffffffffffffffffffffffffffffffffffffffff1673ffffffffffffffffffffffffffffffffffffffff16815260200190815260200160002060009054906101000a900460ff16905092915050565b600660009054906101000a900473ffffffffffffffffffffffffffffffffffffffff1673ffffffffffffffffffffffffffffffffffffffff163373ffffffffffffffffffffffffffffffffffffffff1614611055576040517f08c379a000000000000000000000000000000000000000000000000000000000815260040161104c90612975565b60405180910390fd5b8060088190555050565b6101f481565b60007f01ffc9a7000000000000000000000000000000000000000000000000000000007bffffffffffffffffffffffffffffffffffffffffffffffffffffffff1916827bffffffffffffffffffffffffffffffffffffffffffffffffffffffff1916149050919050565b60011515600960008373ffffffffffffffffffffffffffffffffffffffff1673ffffffffffffffffffffffffffffffffffffffff16815260200190815260200160002060009054906101000a900460ff16151514611162576040517f08c379a000000000000000000000000000000000000000000000000000000000815260040161115990612b02565b60405180910390fd5b6007548210156111a7576040517f08c379a000000000000000000000000000000000000000000000000000000000815260040161119e90612b6e565b60405180910390fd5b60058311156111eb576040517f08c379a00000000000000000000000000000000000000000000000000000000081526004016111e290612c00565b60405180910390fd5b6101f4600a541115611232576040517f08c379a000000000000000000000000000000000000000000000000000000000815260040161122990612c92565b60405180910390fd5b60053073ffffffffffffffffffffffffffffffffffffffff166370a08231836040518263ffffffff1660e01b815260040161126d91906120a6565b60206040518083038186803b15801561128557600080fd5b505afa158015611299573d6000803e3d6000fd5b505050506040513d601f19601f820116820180604052508101906112bd9190612cc7565b11156112fe576040517f08c379a00000000000000000000000000000000000000000000000000000000081526004016112f590612d66565b60405180910390fd5b505050565b600073ffffffffffffffffffffffffffffffffffffffff168273ffffffffffffffffffffffffffffffffffffffff161415611373576040517f08c379a000000000000000000000000000000000000000000000000000000000815260040161136a90612dd2565b60405180910390fd5b61137c816114d1565b156113bc576040517f08c379a00000000000000000000000000000000000000000000000000000000081526004016113b390612e3e565b60405180910390fd5b6113c860008383611c9f565b6001600360008473ffffffffffffffffffffffffffffffffffffffff1673ffffffffffffffffffffffffffffffffffffffff16815260200190815260200160002060008282546114189190612e5e565b92505081905550816002600083815260200190815260200160002060006101000a81548173ffffffffffffffffffffffffffffffffffffffff021916908373ffffffffffffffffffffffffffffffffffffffff160217905550808273ffffffffffffffffffffffffffffffffffffffff16600073ffffffffffffffffffffffffffffffffffffffff167fddf252ad1be2c89b69c2b068fc378daa952ba7f163c4a11628f55a4df523b3ef60405160405180910390a45050565b60008073ffffffffffffffffffffffffffffffffffffffff166002600084815260200190815260200160002060009054906101000a900473ffffffffffffffffffffffffffffffffffffffff1673ffffffffffffffffffffffffffffffffffffffff1614159050919050565b600033905090565b816004600083815260200190815260200160002060006101000a81548173ffffffffffffffffffffffffffffffffffffffff021916908373ffffffffffffffffffffffffffffffffffffffff160217905550808273ffffffffffffffffffffffffffffffffffffffff166115b883610a23565b73ffffffffffffffffffffffffffffffffffffffff167f8c5be1e5ebec7d5bd14f71427d1e84f3dd0314c0f7b2291e5b200ac8c7c3b92560405160405180910390a45050565b6000611609826114d1565b611648576040517f08c379a000000000000000000000000000000000000000000000000000000000815260040161163f90612f26565b60405180910390fd5b600061165383610a23565b90508073ffffffffffffffffffffffffffffffffffffffff168473ffffffffffffffffffffffffffffffffffffffff1614806116c257508373ffffffffffffffffffffffffffffffffffffffff166116aa84610800565b73ffffffffffffffffffffffffffffffffffffffff16145b806116d357506116d28185610f31565b5b91505092915050565b8273ffffffffffffffffffffffffffffffffffffffff166116fc82610a23565b73ffffffffffffffffffffffffffffffffffffffff1614611752576040517f08c379a000000000000000000000000000000000000000000000000000000000815260040161174990612fb8565b60405180910390fd5b600073ffffffffffffffffffffffffffffffffffffffff168273ffffffffffffffffffffffffffffffffffffffff1614156117c2576040517f08c379a00000000000000000000000000000000000000000000000000000000081526004016117b99061304a565b60405180910390fd5b6117cd838383611c9f565b6117d8600082611545565b6001600360008573ffffffffffffffffffffffffffffffffffffffff1673ffffffffffffffffffffffffffffffffffffffff1681526020019081526020016000206000828254611828919061306a565b925050819055506001600360008473ffffffffffffffffffffffffffffffffffffffff1673ffffffffffffffffffffffffffffffffffffffff168152602001908152602001600020600082825461187f9190612e5e565b92505081905550816002600083815260200190815260200160002060006101000a81548173ffffffffffffffffffffffffffffffffffffffff021916908373ffffffffffffffffffffffffffffffffffffffff160217905550808273ffffffffffffffffffffffffffffffffffffffff168473ffffffffffffffffffffffffffffffffffffffff167fddf252ad1be2c89b69c2b068fc378daa952ba7f163c4a11628f55a4df523b3ef60405160405180910390a4505050565b8173ffffffffffffffffffffffffffffffffffffffff168373ffffffffffffffffffffffffffffffffffffffff1614156119a7576040517f08c379a000000000000000000000000000000000000000000000000000000000815260040161199e906130ea565b60405180910390fd5b80600560008573ffffffffffffffffffffffffffffffffffffffff1673ffffffffffffffffffffffffffffffffffffffff16815260200190815260200160002060008473ffffffffffffffffffffffffffffffffffffffff1673ffffffffffffffffffffffffffffffffffffffff16815260200190815260200160002060006101000a81548160ff0219169083151502179055508173ffffffffffffffffffffffffffffffffffffffff168373ffffffffffffffffffffffffffffffffffffffff167f17307eab39ab6107e8899845ad3d59bd9653f200f220920489ca2b5937696c3183604051611a989190611f02565b60405180910390a3505050565b611ab08484846116dc565b611abc84848484611ca4565b611afb576040517f08c379a0000000000000000000000000000000000000000000000000000000008152600401611af29061317c565b60405180910390fd5b50505050565b60606040518060400160405280600e81526020017f697066733a2f2f66312d6e66742f000000000000000000000000000000000000815250905090565b60606000821415611b86576040518060400160405280600181526020017f30000000000000000000000000000000000000000000000000000000000000008152509050611c9a565b600082905060005b60008214611bb8578080611ba1906124ed565b915050600a82611bb191906131cb565b9150611b8e565b60008167ffffffffffffffff811115611bd457611bd36122d0565b5b6040519080825280601f01601f191660200182016040528015611c065781602001600182028036833780820191505090505b5090505b60008514611c9357600182611c1f919061306a565b9150600a85611c2e91906131fc565b6030611c3a9190612e5e565b60f81b818381518110611c5057611c4f612995565b5b60200101907effffffffffffffffffffffffffffffffffffffffffffffffffffffffffffff1916908160001a905350600a85611c8c91906131cb565b9450611c0a565b8093505050505b919050565b505050565b6000611cc58473ffffffffffffffffffffffffffffffffffffffff16611e3b565b15611e2e578373ffffffffffffffffffffffffffffffffffffffff1663150b7a02611cee61153d565b8786866040518563ffffffff1660e01b8152600401611d109493929190613282565b602060405180830381600087803b158015611d2a57600080fd5b505af1925050508015611d5b57506040513d601f19601f82011682018060405250810190611d5891906132e3565b60015b611dde573d8060008114611d8b576040519150601f19603f3d011682016040523d82523d6000602084013e611d90565b606091505b50600081511415611dd6576040517f08c379a0000000000000000000000000000000000000000000000000000000008152600401611dcd9061317c565b60405180910390fd5b805181602001fd5b63150b7a0260e01b7bffffffffffffffffffffffffffffffffffffffffffffffffffffffff1916817bffffffffffffffffffffffffffffffffffffffffffffffffffffffff191614915050611e33565b600190505b949350505050565b600080823b905060008111915050919050565b6000604051905090565b600080fd5b600080fd5b60007fffffffff0000000000000000000000000000000000000000000000000000000082169050919050565b611e9781611e62565b8114611ea257600080fd5b50565b600081359050611eb481611e8e565b92915050565b600060208284031215611ed057611ecf611e58565b5b6000611ede84828501611ea5565b91505092915050565b60008115159050919050565b611efc81611ee7565b82525050565b6000602082019050611f176000830184611ef3565b92915050565b6000819050919050565b611f3081611f1d565b8114611f3b57600080fd5b50565b600081359050611f4d81611f27565b92915050565b600060208284031215611f6957611f68611e58565b5b6000611f7784828501611f3e565b91505092915050565b611f8981611f1d565b82525050565b6000602082019050611fa46000830184611f80565b92915050565b600081519050919050565b600082825260208201905092915050565b60005b83811015611fe4578082015181840152602081019050611fc9565b83811115611ff3576000848401525b50505050565b6000601f19601f8301169050919050565b600061201582611faa565b61201f8185611fb5565b935061202f818560208601611fc6565b61203881611ff9565b840191505092915050565b6000602082019050818103600083015261205d818461200a565b905092915050565b600073ffffffffffffffffffffffffffffffffffffffff82169050919050565b600061209082612065565b9050919050565b6120a081612085565b82525050565b60006020820190506120bb6000830184612097565b92915050565b6120ca81612085565b81146120d557600080fd5b50565b6000813590506120e7816120c1565b92915050565b6000806040838503121561210457612103611e58565b5b6000612112858286016120d8565b925050602061212385828601611f3e565b9150509250929050565b60008060006060848603121561214657612145611e58565b5b6000612154868287016120d8565b9350506020612165868287016120d8565b925050604061217686828701611f3e565b9150509250925092565b60006020828403121561219657612195611e58565b5b60006121a4848285016120d8565b91505092915050565b600080fd5b600080fd5b600080fd5b60008083601f8401126121d2576121d16121ad565b5b8235905067ffffffffffffffff8111156121ef576121ee6121b2565b5b60208301915083602082028301111561220b5761220a6121b7565b5b9250929050565b6000806020838503121561222957612228611e58565b5b600083013567ffffffffffffffff81111561224757612246611e5d565b5b612253858286016121bc565b92509250509250929050565b61226881611ee7565b811461227357600080fd5b50565b6000813590506122858161225f565b92915050565b600080604083850312156122a2576122a1611e58565b5b60006122b0858286016120d8565b92505060206122c185828601612276565b9150509250929050565b600080fd5b7f4e487b7100000000000000000000000000000000000000000000000000000000600052604160045260246000fd5b61230882611ff9565b810181811067ffffffffffffffff82111715612327576123266122d0565b5b80604052505050565b600061233a611e4e565b905061234682826122ff565b919050565b600067ffffffffffffffff821115612366576123656122d0565b5b61236f82611ff9565b9050602081019050919050565b82818337600083830152505050565b600061239e6123998461234b565b612330565b9050828152602081018484840111156123ba576123b96122cb565b5b6123c584828561237c565b509392505050565b600082601f8301126123e2576123e16121ad565b5b81356123f284826020860161238b565b91505092915050565b6000806000806080858703121561241557612414611e58565b5b6000612423878288016120d8565b9450506020612434878288016120d8565b935050604061244587828801611f3e565b925050606085013567ffffffffffffffff81111561246657612465611e5d565b5b612472878288016123cd565b91505092959194509250565b6000806040838503121561249557612494611e58565b5b60006124a3858286016120d8565b92505060206124b4858286016120d8565b9150509250929050565b7f4e487b7100000000000000000000000000000000000000000000000000000000600052601160045260246000fd5b60006124f882611f1d565b91507fffffffffffffffffffffffffffffffffffffffffffffffffffffffffffffffff82141561252b5761252a6124be565b5b600182019050919050565b7f4e487b7100000000000000000000000000000000000000000000000000000000600052602260045260246000fd5b6000600282049050600182168061257d57607f821691505b6020821081141561259157612590612536565b5b50919050565b7f4552433732313a20617070726f76656420717565727920666f72206e6f6e657860008201527f697374656e7420746f6b656e0000000000000000000000000000000000000000602082015250565b60006125f3602c83611fb5565b91506125fe82612597565b604082019050919050565b60006020820190508181036000830152612622816125e6565b9050919050565b7f4552433732313a20617070726f76616c20746f2063757272656e74206f776e6560008201527f7200000000000000000000000000000000000000000000000000000000000000602082015250565b6000612685602183611fb5565b915061269082612629565b604082019050919050565b600060208201905081810360008301526126b481612678565b9050919050565b7f4552433732313a20617070726f76652063616c6c6572206973206e6f74206f7760008201527f6e6572206e6f7220617070726f76656420666f7220616c6c0000000000000000602082015250565b6000612717603883611fb5565b9150612722826126bb565b604082019050919050565b600060208201905081810360008301526127468161270a565b9050919050565b7f4552433732313a207472616e736665722063616c6c6572206973206e6f74206f60008201527f776e6572206e6f7220617070726f766564000000000000000000000000000000602082015250565b60006127a9603183611fb5565b91506127b48261274d565b604082019050919050565b600060208201905081810360008301526127d88161279c565b9050919050565b7f4552433732313a206f776e657220717565727920666f72206e6f6e657869737460008201527f656e7420746f6b656e0000000000000000000000000000000000000000000000602082015250565b600061283b602983611fb5565b9150612846826127df565b604082019050919050565b6000602082019050818103600083015261286a8161282e565b9050919050565b7f4552433732313a2062616c616e636520717565727920666f7220746865207a6560008201527f726f206164647265737300000000000000000000000000000000000000000000602082015250565b60006128cd602a83611fb5565b91506128d882612871565b604082019050919050565b600060208201905081810360008301526128fc816128c0565b9050919050565b7f6f6e6c79206f776e65722063616e20706572666f726d2074686973206163746960008201527f6f6e000000000000000000000000000000000000000000000000000000000000602082015250565b600061295f602283611fb5565b915061296a82612903565b604082019050919050565b6000602082019050818103600083015261298e81612952565b9050919050565b7f4e487b7100000000000000000000000000000000000000000000000000000000600052603260045260246000fd5b7f4552433732314d657461646174613a2055524920717565727920666f72206e6f60008201527f6e6578697374656e7420746f6b656e0000000000000000000000000000000000602082015250565b6000612a20602f83611fb5565b9150612a2b826129c4565b604082019050919050565b60006020820190508181036000830152612a4f81612a13565b9050919050565b600081905092915050565b6000612a6c82611faa565b612a768185612a56565b9350612a86818560208601611fc6565b80840191505092915050565b6000612a9e8285612a61565b9150612aaa8284612a61565b91508190509392505050565b7f757365722061646472657373206973206e6f74206f6e2077686974656c697374600082015250565b6000612aec602083611fb5565b9150612af782612ab6565b602082019050919050565b60006020820190508181036000830152612b1b81612adf565b9050919050565b7f6e6f7420656e6f75676874206574682073656e74000000000000000000000000600082015250565b6000612b58601483611fb5565b9150612b6382612b22565b602082019050919050565b60006020820190508181036000830152612b8781612b4b565b9050919050565b7f63616e2774206d696e74206d6f7265207468616e2035206e667473206475726960008201527f6e67207072652d73616c65000000000000000000000000000000000000000000602082015250565b6000612bea602b83611fb5565b9150612bf582612b8e565b604082019050919050565b60006020820190508181036000830152612c1981612bdd565b9050919050565b7f6e6f206d6f7265206e66747320617661696c61626c6520666f72207072652d7360008201527f616c650000000000000000000000000000000000000000000000000000000000602082015250565b6000612c7c602383611fb5565b9150612c8782612c20565b604082019050919050565b60006020820190508181036000830152612cab81612c6f565b9050919050565b600081519050612cc181611f27565b92915050565b600060208284031215612cdd57612cdc611e58565b5b6000612ceb84828501612cb2565b91505092915050565b7f6d617820616d6f756e7420796f752063616e20686176652069732035206e667460008201527f7320647572696e67207072652d73616c65000000000000000000000000000000602082015250565b6000612d50603183611fb5565b9150612d5b82612cf4565b604082019050919050565b60006020820190508181036000830152612d7f81612d43565b9050919050565b7f4552433732313a206d696e7420746f20746865207a65726f2061646472657373600082015250565b6000612dbc602083611fb5565b9150612dc782612d86565b602082019050919050565b60006020820190508181036000830152612deb81612daf565b9050919050565b7f4552433732313a20746f6b656e20616c7265616479206d696e74656400000000600082015250565b6000612e28601c83611fb5565b9150612e3382612df2565b602082019050919050565b60006020820190508181036000830152612e5781612e1b565b9050919050565b6000612e6982611f1d565b9150612e7483611f1d565b9250827fffffffffffffffffffffffffffffffffffffffffffffffffffffffffffffffff03821115612ea957612ea86124be565b5b828201905092915050565b7f4552433732313a206f70657261746f7220717565727920666f72206e6f6e657860008201527f697374656e7420746f6b656e0000000000000000000000000000000000000000602082015250565b6000612f10602c83611fb5565b9150612f1b82612eb4565b604082019050919050565b60006020820190508181036000830152612f3f81612f03565b9050919050565b7f4552433732313a207472616e73666572206f6620746f6b656e2074686174206960008201527f73206e6f74206f776e0000000000000000000000000000000000000000000000602082015250565b6000612fa2602983611fb5565b9150612fad82612f46565b604082019050919050565b60006020820190508181036000830152612fd181612f95565b9050919050565b7f4552433732313a207472616e7366657220746f20746865207a65726f2061646460008201527f7265737300000000000000000000000000000000000000000000000000000000602082015250565b6000613034602483611fb5565b915061303f82612fd8565b604082019050919050565b6000602082019050818103600083015261306381613027565b9050919050565b600061307582611f1d565b915061308083611f1d565b925082821015613093576130926124be565b5b828203905092915050565b7f4552433732313a20617070726f766520746f2063616c6c657200000000000000600082015250565b60006130d4601983611fb5565b91506130df8261309e565b602082019050919050565b60006020820190508181036000830152613103816130c7565b9050919050565b7f4552433732313a207472616e7366657220746f206e6f6e20455243373231526560008201527f63656976657220696d706c656d656e7465720000000000000000000000000000602082015250565b6000613166603283611fb5565b91506131718261310a565b604082019050919050565b6000602082019050818103600083015261319581613159565b9050919050565b7f4e487b7100000000000000000000000000000000000000000000000000000000600052601260045260246000fd5b60006131d682611f1d565b91506131e183611f1d565b9250826131f1576131f061319c565b5b828204905092915050565b600061320782611f1d565b915061321283611f1d565b9250826132225761322161319c565b5b828206905092915050565b600081519050919050565b600082825260208201905092915050565b60006132548261322d565b61325e8185613238565b935061326e818560208601611fc6565b61327781611ff9565b840191505092915050565b60006080820190506132976000830187612097565b6132a46020830186612097565b6132b16040830185611f80565b81810360608301526132c38184613249565b905095945050505050565b6000815190506132dd81611e8e565b92915050565b6000602082840312156132f9576132f8611e58565b5b6000613307848285016132ce565b9150509291505056fea264697066735822122011463ccc9bc55654dfeb28425db569ddad2744cf7cbe60f8b9964ee846a1cb0564736f6c63430008090033",
  "linkReferences": {},
  "deployedLinkReferences": {}
}