{
  "_format": "hh-sol-artifact-1",
  "contractName": "F1_NFT",
  "sourceName": "contracts/F1_NFT.sol",
  "abi": [
    {
      "inputs": [
        {
          "internalType": "uint256",
          "name": "_whiteListPrice",
          "type": "uint256"
        },
        {
          "internalType": "uint256",
          "name": "_mainSalePrice",
          "type": "uint256"
        }
      ],
      "stateMutability": "nonpayable",
      "type": "constructor"
    },
    {
      "anonymous": false,
      "inputs": [
        {
          "indexed": true,
          "internalType": "address",
          "name": "owner",
          "type": "address"
        },
        {
          "indexed": true,
          "internalType": "address",
          "name": "approved",
          "type": "address"
        },
        {
          "indexed": true,
          "internalType": "uint256",
          "name": "tokenId",
          "type": "uint256"
        }
      ],
      "name": "Approval",
      "type": "event"
    },
    {
      "anonymous": false,
      "inputs": [
        {
          "indexed": true,
          "internalType": "address",
          "name": "owner",
          "type": "address"
        },
        {
          "indexed": true,
          "internalType": "address",
          "name": "operator",
          "type": "address"
        },
        {
          "indexed": false,
          "internalType": "bool",
          "name": "approved",
          "type": "bool"
        }
      ],
      "name": "ApprovalForAll",
      "type": "event"
    },
    {
      "anonymous": false,
      "inputs": [
        {
          "indexed": true,
          "internalType": "address",
          "name": "from",
          "type": "address"
        },
        {
          "indexed": true,
          "internalType": "address",
          "name": "to",
          "type": "address"
        },
        {
          "indexed": true,
          "internalType": "uint256",
          "name": "tokenId",
          "type": "uint256"
        }
      ],
      "name": "Transfer",
      "type": "event"
    },
    {
      "inputs": [],
      "name": "MAIN_SALE_NFT_LIMIT",
      "outputs": [
        {
          "internalType": "uint256",
          "name": "",
          "type": "uint256"
        }
      ],
      "stateMutability": "view",
      "type": "function"
    },
    {
      "inputs": [],
      "name": "MAX_MAIN_MINT_AMOUNT",
      "outputs": [
        {
          "internalType": "uint256",
          "name": "",
          "type": "uint256"
        }
      ],
      "stateMutability": "view",
      "type": "function"
    },
    {
      "inputs": [],
      "name": "MAX_WHITELIST_MINT_AMOUNT",
      "outputs": [
        {
          "internalType": "uint256",
          "name": "",
          "type": "uint256"
        }
      ],
      "stateMutability": "view",
      "type": "function"
    },
    {
      "inputs": [],
      "name": "WHITELIST_NFT_LIMIT",
      "outputs": [
        {
          "internalType": "uint256",
          "name": "",
          "type": "uint256"
        }
      ],
      "stateMutability": "view",
      "type": "function"
    },
    {
      "inputs": [
        {
          "internalType": "address[]",
          "name": "addresses",
          "type": "address[]"
        }
      ],
      "name": "addToWhiteList",
      "outputs": [],
      "stateMutability": "nonpayable",
      "type": "function"
    },
    {
      "inputs": [
        {
          "internalType": "address",
          "name": "to",
          "type": "address"
        },
        {
          "internalType": "uint256",
          "name": "tokenId",
          "type": "uint256"
        }
      ],
      "name": "approve",
      "outputs": [],
      "stateMutability": "nonpayable",
      "type": "function"
    },
    {
      "inputs": [
        {
          "internalType": "address",
          "name": "owner",
          "type": "address"
        }
      ],
      "name": "balanceOf",
      "outputs": [
        {
          "internalType": "uint256",
          "name": "",
          "type": "uint256"
        }
      ],
      "stateMutability": "view",
      "type": "function"
    },
    {
      "inputs": [
        {
          "internalType": "uint256",
          "name": "tokenId",
          "type": "uint256"
        }
      ],
      "name": "getApproved",
      "outputs": [
        {
          "internalType": "address",
          "name": "",
          "type": "address"
        }
      ],
      "stateMutability": "view",
      "type": "function"
    },
    {
      "inputs": [
        {
          "internalType": "address",
          "name": "owner",
          "type": "address"
        },
        {
          "internalType": "address",
          "name": "operator",
          "type": "address"
        }
      ],
      "name": "isApprovedForAll",
      "outputs": [
        {
          "internalType": "bool",
          "name": "",
          "type": "bool"
        }
      ],
      "stateMutability": "view",
      "type": "function"
    },
    {
      "inputs": [
        {
          "internalType": "uint256",
          "name": "nftAmountToMint",
          "type": "uint256"
        }
      ],
      "name": "mainSaleMint",
      "outputs": [],
      "stateMutability": "payable",
      "type": "function"
    },
    {
      "inputs": [],
      "name": "mainSalePrice",
      "outputs": [
        {
          "internalType": "uint256",
          "name": "",
          "type": "uint256"
        }
      ],
      "stateMutability": "view",
      "type": "function"
    },
    {
      "inputs": [],
      "name": "name",
      "outputs": [
        {
          "internalType": "string",
          "name": "",
          "type": "string"
        }
      ],
      "stateMutability": "view",
      "type": "function"
    },
    {
      "inputs": [],
      "name": "owner",
      "outputs": [
        {
          "internalType": "address",
          "name": "",
          "type": "address"
        }
      ],
      "stateMutability": "view",
      "type": "function"
    },
    {
      "inputs": [
        {
          "internalType": "uint256",
          "name": "tokenId",
          "type": "uint256"
        }
      ],
      "name": "ownerOf",
      "outputs": [
        {
          "internalType": "address",
          "name": "",
          "type": "address"
        }
      ],
      "stateMutability": "view",
      "type": "function"
    },
    {
      "inputs": [
        {
          "internalType": "address",
          "name": "from",
          "type": "address"
        },
        {
          "internalType": "address",
          "name": "to",
          "type": "address"
        },
        {
          "internalType": "uint256",
          "name": "tokenId",
          "type": "uint256"
        }
      ],
      "name": "safeTransferFrom",
      "outputs": [],
      "stateMutability": "nonpayable",
      "type": "function"
    },
    {
      "inputs": [
        {
          "internalType": "address",
          "name": "from",
          "type": "address"
        },
        {
          "internalType": "address",
          "name": "to",
          "type": "address"
        },
        {
          "internalType": "uint256",
          "name": "tokenId",
          "type": "uint256"
        },
        {
          "internalType": "bytes",
          "name": "_data",
          "type": "bytes"
        }
      ],
      "name": "safeTransferFrom",
      "outputs": [],
      "stateMutability": "nonpayable",
      "type": "function"
    },
    {
      "inputs": [
        {
          "internalType": "address",
          "name": "operator",
          "type": "address"
        },
        {
          "internalType": "bool",
          "name": "approved",
          "type": "bool"
        }
      ],
      "name": "setApprovalForAll",
      "outputs": [],
      "stateMutability": "nonpayable",
      "type": "function"
    },
    {
      "inputs": [
        {
          "internalType": "uint256",
          "name": "price",
          "type": "uint256"
        }
      ],
      "name": "setMainSalePrice",
      "outputs": [],
      "stateMutability": "nonpayable",
      "type": "function"
    },
    {
      "inputs": [
        {
          "internalType": "bytes4",
          "name": "interfaceId",
          "type": "bytes4"
        }
      ],
      "name": "supportsInterface",
      "outputs": [
        {
          "internalType": "bool",
          "name": "",
          "type": "bool"
        }
      ],
      "stateMutability": "view",
      "type": "function"
    },
    {
      "inputs": [],
      "name": "symbol",
      "outputs": [
        {
          "internalType": "string",
          "name": "",
          "type": "string"
        }
      ],
      "stateMutability": "view",
      "type": "function"
    },
    {
      "inputs": [],
      "name": "tokenID",
      "outputs": [
        {
          "internalType": "uint256",
          "name": "",
          "type": "uint256"
        }
      ],
      "stateMutability": "view",
      "type": "function"
    },
    {
      "inputs": [
        {
          "internalType": "uint256",
          "name": "tokenId",
          "type": "uint256"
        }
      ],
      "name": "tokenURI",
      "outputs": [
        {
          "internalType": "string",
          "name": "",
          "type": "string"
        }
      ],
      "stateMutability": "view",
      "type": "function"
    },
    {
      "inputs": [
        {
          "internalType": "address",
          "name": "from",
          "type": "address"
        },
        {
          "internalType": "address",
          "name": "to",
          "type": "address"
        },
        {
          "internalType": "uint256",
          "name": "tokenId",
          "type": "uint256"
        }
      ],
      "name": "transferFrom",
      "outputs": [],
      "stateMutability": "nonpayable",
      "type": "function"
    },
    {
      "inputs": [
        {
          "internalType": "uint256",
          "name": "",
          "type": "uint256"
        }
      ],
      "name": "uriMap",
      "outputs": [
        {
          "internalType": "string",
          "name": "",
          "type": "string"
        }
      ],
      "stateMutability": "view",
      "type": "function"
    },
    {
      "inputs": [
        {
          "internalType": "address",
          "name": "",
          "type": "address"
        }
      ],
      "name": "whiteListAddresses",
      "outputs": [
        {
          "internalType": "bool",
          "name": "",
          "type": "bool"
        }
      ],
      "stateMutability": "view",
      "type": "function"
    },
    {
      "inputs": [
        {
          "internalType": "uint256",
          "name": "nftAmountToMint",
          "type": "uint256"
        },
        {
          "internalType": "string",
          "name": "uri",
          "type": "string"
        }
      ],
      "name": "whiteListMint",
      "outputs": [],
      "stateMutability": "payable",
      "type": "function"
    },
    {
      "inputs": [],
      "name": "whiteListPrice",
      "outputs": [
        {
          "internalType": "uint256",
          "name": "",
          "type": "uint256"
        }
      ],
      "stateMutability": "view",
      "type": "function"
    }
  ],
  "bytecode": "0x60806040523480156200001157600080fd5b50604051620038d3380380620038d383398181016040528101906200003791906200021e565b6040518060400160405280600681526020017f66315f44414f00000000000000000000000000000000000000000000000000008152506040518060400160405280600281526020017f66310000000000000000000000000000000000000000000000000000000000008152508160009080519060200190620000bb9291906200012e565b508060019080519060200190620000d49291906200012e565b50505033600660006101000a81548173ffffffffffffffffffffffffffffffffffffffff021916908373ffffffffffffffffffffffffffffffffffffffff16021790555081600781905550806008819055505050620002ca565b8280546200013c9062000294565b90600052602060002090601f016020900481019282620001605760008555620001ac565b82601f106200017b57805160ff1916838001178555620001ac565b82800160010185558215620001ac579182015b82811115620001ab5782518255916020019190600101906200018e565b5b509050620001bb9190620001bf565b5090565b5b80821115620001da576000816000905550600101620001c0565b5090565b600080fd5b6000819050919050565b620001f881620001e3565b81146200020457600080fd5b50565b6000815190506200021881620001ed565b92915050565b60008060408385031215620002385762000237620001de565b5b6000620002488582860162000207565b92505060206200025b8582860162000207565b9150509250929050565b7f4e487b7100000000000000000000000000000000000000000000000000000000600052602260045260246000fd5b60006002820490506001821680620002ad57607f821691505b60208210811415620002c457620002c362000265565b5b50919050565b6135f980620002da6000396000f3fe60806040526004361061019c5760003560e01c80638da5cb5b116100ec578063aef19d2f1161008a578063dd2eb9f311610064578063dd2eb9f3146105c0578063e985e9c5146105fd578063f07bba651461063a578063fd0e68fd146106635761019c565b8063aef19d2f1461052f578063b88d4fde1461055a578063c87b56dd146105835761019c565b8063a22cb465116100c6578063a22cb46514610494578063a3db27e2146104bd578063a5c42ef1146104d9578063aa143023146105045761019c565b80638da5cb5b14610401578063920674dc1461042c57806395d89b41146104695761019c565b80631f9d8783116101595780636352211e116101335780636352211e14610333578063685756851461037057806370a082311461039b578063740d73f3146103d85761019c565b80631f9d8783146102b657806323b872dd146102e157806342842e0e1461030a5761019c565b806301ffc9a7146101a1578063040c2fc3146101de57806306fdde0314610209578063081812fc14610234578063095ea7b314610271578063146e755a1461029a575b600080fd5b3480156101ad57600080fd5b506101c860048036038101906101c39190612070565b61068e565b6040516101d591906120b8565b60405180910390f35b3480156101ea57600080fd5b506101f3610770565b60405161020091906120ec565b60405180910390f35b34801561021557600080fd5b5061021e610775565b60405161022b91906121a0565b60405180910390f35b34801561024057600080fd5b5061025b600480360381019061025691906121ee565b610807565b604051610268919061225c565b60405180910390f35b34801561027d57600080fd5b50610298600480360381019061029391906122a3565b61088c565b005b6102b460048036038101906102af9190612418565b6109a4565b005b3480156102c257600080fd5b506102cb610a20565b6040516102d891906120ec565b60405180910390f35b3480156102ed57600080fd5b5061030860048036038101906103039190612474565b610a26565b005b34801561031657600080fd5b50610331600480360381019061032c9190612474565b610a86565b005b34801561033f57600080fd5b5061035a600480360381019061035591906121ee565b610aa6565b604051610367919061225c565b60405180910390f35b34801561037c57600080fd5b50610385610b58565b60405161039291906120ec565b60405180910390f35b3480156103a757600080fd5b506103c260048036038101906103bd91906124c7565b610b5e565b6040516103cf91906120ec565b60405180910390f35b3480156103e457600080fd5b506103ff60048036038101906103fa9190612554565b610c16565b005b34801561040d57600080fd5b50610416610d4b565b604051610423919061225c565b60405180910390f35b34801561043857600080fd5b50610453600480360381019061044e91906124c7565b610d71565b60405161046091906120b8565b60405180910390f35b34801561047557600080fd5b5061047e610d91565b60405161048b91906121a0565b60405180910390f35b3480156104a057600080fd5b506104bb60048036038101906104b691906125cd565b610e23565b005b6104d760048036038101906104d291906121ee565b610e39565b005b3480156104e557600080fd5b506104ee610e8a565b6040516104fb91906120ec565b60405180910390f35b34801561051057600080fd5b50610519610e90565b60405161052691906120ec565b60405180910390f35b34801561053b57600080fd5b50610544610e95565b60405161055191906120ec565b60405180910390f35b34801561056657600080fd5b50610581600480360381019061057c91906126ae565b610e9b565b005b34801561058f57600080fd5b506105aa60048036038101906105a591906121ee565b610efd565b6040516105b791906121a0565b60405180910390f35b3480156105cc57600080fd5b506105e760048036038101906105e291906121ee565b610fa4565b6040516105f491906121a0565b60405180910390f35b34801561060957600080fd5b50610624600480360381019061061f9190612731565b611044565b60405161063191906120b8565b60405180910390f35b34801561064657600080fd5b50610661600480360381019061065c91906121ee565b6110d8565b005b34801561066f57600080fd5b50610678611172565b60405161068591906120ec565b60405180910390f35b60007f80ac58cd000000000000000000000000000000000000000000000000000000007bffffffffffffffffffffffffffffffffffffffffffffffffffffffff1916827bffffffffffffffffffffffffffffffffffffffffffffffffffffffff1916148061075957507f5b5e139f000000000000000000000000000000000000000000000000000000007bffffffffffffffffffffffffffffffffffffffffffffffffffffffff1916827bffffffffffffffffffffffffffffffffffffffffffffffffffffffff1916145b80610769575061076882611178565b5b9050919050565b600581565b606060008054610784906127a0565b80601f01602080910402602001604051908101604052809291908181526020018280546107b0906127a0565b80156107fd5780601f106107d2576101008083540402835291602001916107fd565b820191906000526020600020905b8154815290600101906020018083116107e057829003601f168201915b5050505050905090565b6000610812826111e2565b610851576040517f08c379a000000000000000000000000000000000000000000000000000000000815260040161084890612844565b60405180910390fd5b6004600083815260200190815260200160002060009054906101000a900473ffffffffffffffffffffffffffffffffffffffff169050919050565b600061089782610aa6565b90508073ffffffffffffffffffffffffffffffffffffffff168373ffffffffffffffffffffffffffffffffffffffff161415610908576040517f08c379a00000000000000000000000000000000000000000000000000000000081526004016108ff906128d6565b60405180910390fd5b8073ffffffffffffffffffffffffffffffffffffffff1661092761124e565b73ffffffffffffffffffffffffffffffffffffffff16148061095657506109558161095061124e565b611044565b5b610995576040517f08c379a000000000000000000000000000000000000000000000000000000000815260040161098c90612968565b60405180910390fd5b61099f8383611256565b505050565b6109af82343361130f565b60005b82811015610a1b576109c633600b54611543565b81600a6000600b54815260200190815260200160002090805190602001906109ef929190611f61565b50600b6000815480929190610a03906129b7565b91905055508080610a13906129b7565b9150506109b2565b505050565b61251c81565b610a37610a3161124e565b82611711565b610a76576040517f08c379a0000000000000000000000000000000000000000000000000000000008152600401610a6d90612a72565b60405180910390fd5b610a818383836117ef565b505050565b610aa183838360405180602001604052806000815250610e9b565b505050565b6000806002600084815260200190815260200160002060009054906101000a900473ffffffffffffffffffffffffffffffffffffffff169050600073ffffffffffffffffffffffffffffffffffffffff168173ffffffffffffffffffffffffffffffffffffffff161415610b4f576040517f08c379a0000000000000000000000000000000000000000000000000000000008152600401610b4690612b04565b60405180910390fd5b80915050919050565b60075481565b60008073ffffffffffffffffffffffffffffffffffffffff168273ffffffffffffffffffffffffffffffffffffffff161415610bcf576040517f08c379a0000000000000000000000000000000000000000000000000000000008152600401610bc690612b96565b60405180910390fd5b600360008373ffffffffffffffffffffffffffffffffffffffff1673ffffffffffffffffffffffffffffffffffffffff168152602001908152602001600020549050919050565b600660009054906101000a900473ffffffffffffffffffffffffffffffffffffffff1673ffffffffffffffffffffffffffffffffffffffff163373ffffffffffffffffffffffffffffffffffffffff1614610ca6576040517f08c379a0000000000000000000000000000000000000000000000000000000008152600401610c9d90612c28565b60405180910390fd5b60005b82829050811015610d4657600160096000858585818110610ccd57610ccc612c48565b5b9050602002016020810190610ce291906124c7565b73ffffffffffffffffffffffffffffffffffffffff1673ffffffffffffffffffffffffffffffffffffffff16815260200190815260200160002060006101000a81548160ff0219169083151502179055508080610d3e906129b7565b915050610ca9565b505050565b600660009054906101000a900473ffffffffffffffffffffffffffffffffffffffff1681565b60096020528060005260406000206000915054906101000a900460ff1681565b606060018054610da0906127a0565b80601f0160208091040260200160405190810160405280929190818152602001828054610dcc906127a0565b8015610e195780601f10610dee57610100808354040283529160200191610e19565b820191906000526020600020905b815481529060010190602001808311610dfc57829003601f168201915b5050505050905090565b610e35610e2e61124e565b8383611a4b565b5050565b610e4481343361130f565b60005b81811015610e8657610e5b33600b54611543565b600b6000815480929190610e6e906129b7565b91905055508080610e7e906129b7565b915050610e47565b5050565b600b5481565b600881565b60085481565b610eac610ea661124e565b83611711565b610eeb576040517f08c379a0000000000000000000000000000000000000000000000000000000008152600401610ee290612a72565b60405180910390fd5b610ef784848484611bb8565b50505050565b6060610f08826111e2565b610f47576040517f08c379a0000000000000000000000000000000000000000000000000000000008152600401610f3e90612ce9565b60405180910390fd5b6000610f51611c14565b90506000815111610f715760405180602001604052806000815250610f9c565b80610f7b84611c51565b604051602001610f8c929190612d45565b6040516020818303038152906040525b915050919050565b600a6020528060005260406000206000915090508054610fc3906127a0565b80601f0160208091040260200160405190810160405280929190818152602001828054610fef906127a0565b801561103c5780601f106110115761010080835404028352916020019161103c565b820191906000526020600020905b81548152906001019060200180831161101f57829003601f168201915b505050505081565b6000600560008473ffffffffffffffffffffffffffffffffffffffff1673ffffffffffffffffffffffffffffffffffffffff16815260200190815260200160002060008373ffffffffffffffffffffffffffffffffffffffff1673ffffffffffffffffffffffffffffffffffffffff16815260200190815260200160002060009054906101000a900460ff16905092915050565b600660009054906101000a900473ffffffffffffffffffffffffffffffffffffffff1673ffffffffffffffffffffffffffffffffffffffff163373ffffffffffffffffffffffffffffffffffffffff1614611168576040517f08c379a000000000000000000000000000000000000000000000000000000000815260040161115f90612c28565b60405180910390fd5b8060088190555050565b6101f481565b60007f01ffc9a7000000000000000000000000000000000000000000000000000000007bffffffffffffffffffffffffffffffffffffffffffffffffffffffff1916827bffffffffffffffffffffffffffffffffffffffffffffffffffffffff1916149050919050565b60008073ffffffffffffffffffffffffffffffffffffffff166002600084815260200190815260200160002060009054906101000a900473ffffffffffffffffffffffffffffffffffffffff1673ffffffffffffffffffffffffffffffffffffffff1614159050919050565b600033905090565b816004600083815260200190815260200160002060006101000a81548173ffffffffffffffffffffffffffffffffffffffff021916908373ffffffffffffffffffffffffffffffffffffffff160217905550808273ffffffffffffffffffffffffffffffffffffffff166112c983610aa6565b73ffffffffffffffffffffffffffffffffffffffff167f8c5be1e5ebec7d5bd14f71427d1e84f3dd0314c0f7b2291e5b200ac8c7c3b92560405160405180910390a45050565b60011515600960008373ffffffffffffffffffffffffffffffffffffffff1673ffffffffffffffffffffffffffffffffffffffff16815260200190815260200160002060009054906101000a900460ff161515146113a2576040517f08c379a000000000000000000000000000000000000000000000000000000000815260040161139990612db5565b60405180910390fd5b6007548210156113e7576040517f08c379a00000000000000000000000000000000000000000000000000000000081526004016113de90612e21565b60405180910390fd5b600583111561142b576040517f08c379a000000000000000000000000000000000000000000000000000000000815260040161142290612eb3565b60405180910390fd5b6101f4600b541115611472576040517f08c379a000000000000000000000000000000000000000000000000000000000815260040161146990612f45565b60405180910390fd5b60053073ffffffffffffffffffffffffffffffffffffffff166370a08231836040518263ffffffff1660e01b81526004016114ad919061225c565b60206040518083038186803b1580156114c557600080fd5b505afa1580156114d9573d6000803e3d6000fd5b505050506040513d601f19601f820116820180604052508101906114fd9190612f7a565b111561153e576040517f08c379a000000000000000000000000000000000000000000000000000000000815260040161153590613019565b60405180910390fd5b505050565b600073ffffffffffffffffffffffffffffffffffffffff168273ffffffffffffffffffffffffffffffffffffffff1614156115b3576040517f08c379a00000000000000000000000000000000000000000000000000000000081526004016115aa90613085565b60405180910390fd5b6115bc816111e2565b156115fc576040517f08c379a00000000000000000000000000000000000000000000000000000000081526004016115f3906130f1565b60405180910390fd5b61160860008383611db2565b6001600360008473ffffffffffffffffffffffffffffffffffffffff1673ffffffffffffffffffffffffffffffffffffffff16815260200190815260200160002060008282546116589190613111565b92505081905550816002600083815260200190815260200160002060006101000a81548173ffffffffffffffffffffffffffffffffffffffff021916908373ffffffffffffffffffffffffffffffffffffffff160217905550808273ffffffffffffffffffffffffffffffffffffffff16600073ffffffffffffffffffffffffffffffffffffffff167fddf252ad1be2c89b69c2b068fc378daa952ba7f163c4a11628f55a4df523b3ef60405160405180910390a45050565b600061171c826111e2565b61175b576040517f08c379a0000000000000000000000000000000000000000000000000000000008152600401611752906131d9565b60405180910390fd5b600061176683610aa6565b90508073ffffffffffffffffffffffffffffffffffffffff168473ffffffffffffffffffffffffffffffffffffffff1614806117d557508373ffffffffffffffffffffffffffffffffffffffff166117bd84610807565b73ffffffffffffffffffffffffffffffffffffffff16145b806117e657506117e58185611044565b5b91505092915050565b8273ffffffffffffffffffffffffffffffffffffffff1661180f82610aa6565b73ffffffffffffffffffffffffffffffffffffffff1614611865576040517f08c379a000000000000000000000000000000000000000000000000000000000815260040161185c9061326b565b60405180910390fd5b600073ffffffffffffffffffffffffffffffffffffffff168273ffffffffffffffffffffffffffffffffffffffff1614156118d5576040517f08c379a00000000000000000000000000000000000000000000000000000000081526004016118cc906132fd565b60405180910390fd5b6118e0838383611db2565b6118eb600082611256565b6001600360008573ffffffffffffffffffffffffffffffffffffffff1673ffffffffffffffffffffffffffffffffffffffff168152602001908152602001600020600082825461193b919061331d565b925050819055506001600360008473ffffffffffffffffffffffffffffffffffffffff1673ffffffffffffffffffffffffffffffffffffffff16815260200190815260200160002060008282546119929190613111565b92505081905550816002600083815260200190815260200160002060006101000a81548173ffffffffffffffffffffffffffffffffffffffff021916908373ffffffffffffffffffffffffffffffffffffffff160217905550808273ffffffffffffffffffffffffffffffffffffffff168473ffffffffffffffffffffffffffffffffffffffff167fddf252ad1be2c89b69c2b068fc378daa952ba7f163c4a11628f55a4df523b3ef60405160405180910390a4505050565b8173ffffffffffffffffffffffffffffffffffffffff168373ffffffffffffffffffffffffffffffffffffffff161415611aba576040517f08c379a0000000000000000000000000000000000000000000000000000000008152600401611ab19061339d565b60405180910390fd5b80600560008573ffffffffffffffffffffffffffffffffffffffff1673ffffffffffffffffffffffffffffffffffffffff16815260200190815260200160002060008473ffffffffffffffffffffffffffffffffffffffff1673ffffffffffffffffffffffffffffffffffffffff16815260200190815260200160002060006101000a81548160ff0219169083151502179055508173ffffffffffffffffffffffffffffffffffffffff168373ffffffffffffffffffffffffffffffffffffffff167f17307eab39ab6107e8899845ad3d59bd9653f200f220920489ca2b5937696c3183604051611bab91906120b8565b60405180910390a3505050565b611bc38484846117ef565b611bcf84848484611db7565b611c0e576040517f08c379a0000000000000000000000000000000000000000000000000000000008152600401611c059061342f565b60405180910390fd5b50505050565b60606040518060400160405280600e81526020017f697066733a2f2f66312d6e66742f000000000000000000000000000000000000815250905090565b60606000821415611c99576040518060400160405280600181526020017f30000000000000000000000000000000000000000000000000000000000000008152509050611dad565b600082905060005b60008214611ccb578080611cb4906129b7565b915050600a82611cc4919061347e565b9150611ca1565b60008167ffffffffffffffff811115611ce757611ce66122ed565b5b6040519080825280601f01601f191660200182016040528015611d195781602001600182028036833780820191505090505b5090505b60008514611da657600182611d32919061331d565b9150600a85611d4191906134af565b6030611d4d9190613111565b60f81b818381518110611d6357611d62612c48565b5b60200101907effffffffffffffffffffffffffffffffffffffffffffffffffffffffffffff1916908160001a905350600a85611d9f919061347e565b9450611d1d565b8093505050505b919050565b505050565b6000611dd88473ffffffffffffffffffffffffffffffffffffffff16611f4e565b15611f41578373ffffffffffffffffffffffffffffffffffffffff1663150b7a02611e0161124e565b8786866040518563ffffffff1660e01b8152600401611e239493929190613535565b602060405180830381600087803b158015611e3d57600080fd5b505af1925050508015611e6e57506040513d601f19601f82011682018060405250810190611e6b9190613596565b60015b611ef1573d8060008114611e9e576040519150601f19603f3d011682016040523d82523d6000602084013e611ea3565b606091505b50600081511415611ee9576040517f08c379a0000000000000000000000000000000000000000000000000000000008152600401611ee09061342f565b60405180910390fd5b805181602001fd5b63150b7a0260e01b7bffffffffffffffffffffffffffffffffffffffffffffffffffffffff1916817bffffffffffffffffffffffffffffffffffffffffffffffffffffffff191614915050611f46565b600190505b949350505050565b600080823b905060008111915050919050565b828054611f6d906127a0565b90600052602060002090601f016020900481019282611f8f5760008555611fd6565b82601f10611fa857805160ff1916838001178555611fd6565b82800160010185558215611fd6579182015b82811115611fd5578251825591602001919060010190611fba565b5b509050611fe39190611fe7565b5090565b5b80821115612000576000816000905550600101611fe8565b5090565b6000604051905090565b600080fd5b600080fd5b60007fffffffff0000000000000000000000000000000000000000000000000000000082169050919050565b61204d81612018565b811461205857600080fd5b50565b60008135905061206a81612044565b92915050565b6000602082840312156120865761208561200e565b5b60006120948482850161205b565b91505092915050565b60008115159050919050565b6120b28161209d565b82525050565b60006020820190506120cd60008301846120a9565b92915050565b6000819050919050565b6120e6816120d3565b82525050565b600060208201905061210160008301846120dd565b92915050565b600081519050919050565b600082825260208201905092915050565b60005b83811015612141578082015181840152602081019050612126565b83811115612150576000848401525b50505050565b6000601f19601f8301169050919050565b600061217282612107565b61217c8185612112565b935061218c818560208601612123565b61219581612156565b840191505092915050565b600060208201905081810360008301526121ba8184612167565b905092915050565b6121cb816120d3565b81146121d657600080fd5b50565b6000813590506121e8816121c2565b92915050565b6000602082840312156122045761220361200e565b5b6000612212848285016121d9565b91505092915050565b600073ffffffffffffffffffffffffffffffffffffffff82169050919050565b60006122468261221b565b9050919050565b6122568161223b565b82525050565b6000602082019050612271600083018461224d565b92915050565b6122808161223b565b811461228b57600080fd5b50565b60008135905061229d81612277565b92915050565b600080604083850312156122ba576122b961200e565b5b60006122c88582860161228e565b92505060206122d9858286016121d9565b9150509250929050565b600080fd5b600080fd5b7f4e487b7100000000000000000000000000000000000000000000000000000000600052604160045260246000fd5b61232582612156565b810181811067ffffffffffffffff82111715612344576123436122ed565b5b80604052505050565b6000612357612004565b9050612363828261231c565b919050565b600067ffffffffffffffff821115612383576123826122ed565b5b61238c82612156565b9050602081019050919050565b82818337600083830152505050565b60006123bb6123b684612368565b61234d565b9050828152602081018484840111156123d7576123d66122e8565b5b6123e2848285612399565b509392505050565b600082601f8301126123ff576123fe6122e3565b5b813561240f8482602086016123a8565b91505092915050565b6000806040838503121561242f5761242e61200e565b5b600061243d858286016121d9565b925050602083013567ffffffffffffffff81111561245e5761245d612013565b5b61246a858286016123ea565b9150509250929050565b60008060006060848603121561248d5761248c61200e565b5b600061249b8682870161228e565b93505060206124ac8682870161228e565b92505060406124bd868287016121d9565b9150509250925092565b6000602082840312156124dd576124dc61200e565b5b60006124eb8482850161228e565b91505092915050565b600080fd5b600080fd5b60008083601f840112612514576125136122e3565b5b8235905067ffffffffffffffff811115612531576125306124f4565b5b60208301915083602082028301111561254d5761254c6124f9565b5b9250929050565b6000806020838503121561256b5761256a61200e565b5b600083013567ffffffffffffffff81111561258957612588612013565b5b612595858286016124fe565b92509250509250929050565b6125aa8161209d565b81146125b557600080fd5b50565b6000813590506125c7816125a1565b92915050565b600080604083850312156125e4576125e361200e565b5b60006125f28582860161228e565b9250506020612603858286016125b8565b9150509250929050565b600067ffffffffffffffff821115612628576126276122ed565b5b61263182612156565b9050602081019050919050565b600061265161264c8461260d565b61234d565b90508281526020810184848401111561266d5761266c6122e8565b5b612678848285612399565b509392505050565b600082601f830112612695576126946122e3565b5b81356126a584826020860161263e565b91505092915050565b600080600080608085870312156126c8576126c761200e565b5b60006126d68782880161228e565b94505060206126e78782880161228e565b93505060406126f8878288016121d9565b925050606085013567ffffffffffffffff81111561271957612718612013565b5b61272587828801612680565b91505092959194509250565b600080604083850312156127485761274761200e565b5b60006127568582860161228e565b92505060206127678582860161228e565b9150509250929050565b7f4e487b7100000000000000000000000000000000000000000000000000000000600052602260045260246000fd5b600060028204905060018216806127b857607f821691505b602082108114156127cc576127cb612771565b5b50919050565b7f4552433732313a20617070726f76656420717565727920666f72206e6f6e657860008201527f697374656e7420746f6b656e0000000000000000000000000000000000000000602082015250565b600061282e602c83612112565b9150612839826127d2565b604082019050919050565b6000602082019050818103600083015261285d81612821565b9050919050565b7f4552433732313a20617070726f76616c20746f2063757272656e74206f776e6560008201527f7200000000000000000000000000000000000000000000000000000000000000602082015250565b60006128c0602183612112565b91506128cb82612864565b604082019050919050565b600060208201905081810360008301526128ef816128b3565b9050919050565b7f4552433732313a20617070726f76652063616c6c6572206973206e6f74206f7760008201527f6e6572206e6f7220617070726f76656420666f7220616c6c0000000000000000602082015250565b6000612952603883612112565b915061295d826128f6565b604082019050919050565b6000602082019050818103600083015261298181612945565b9050919050565b7f4e487b7100000000000000000000000000000000000000000000000000000000600052601160045260246000fd5b60006129c2826120d3565b91507fffffffffffffffffffffffffffffffffffffffffffffffffffffffffffffffff8214156129f5576129f4612988565b5b600182019050919050565b7f4552433732313a207472616e736665722063616c6c6572206973206e6f74206f60008201527f776e6572206e6f7220617070726f766564000000000000000000000000000000602082015250565b6000612a5c603183612112565b9150612a6782612a00565b604082019050919050565b60006020820190508181036000830152612a8b81612a4f565b9050919050565b7f4552433732313a206f776e657220717565727920666f72206e6f6e657869737460008201527f656e7420746f6b656e0000000000000000000000000000000000000000000000602082015250565b6000612aee602983612112565b9150612af982612a92565b604082019050919050565b60006020820190508181036000830152612b1d81612ae1565b9050919050565b7f4552433732313a2062616c616e636520717565727920666f7220746865207a6560008201527f726f206164647265737300000000000000000000000000000000000000000000602082015250565b6000612b80602a83612112565b9150612b8b82612b24565b604082019050919050565b60006020820190508181036000830152612baf81612b73565b9050919050565b7f6f6e6c79206f776e65722063616e20706572666f726d2074686973206163746960008201527f6f6e000000000000000000000000000000000000000000000000000000000000602082015250565b6000612c12602283612112565b9150612c1d82612bb6565b604082019050919050565b60006020820190508181036000830152612c4181612c05565b9050919050565b7f4e487b7100000000000000000000000000000000000000000000000000000000600052603260045260246000fd5b7f4552433732314d657461646174613a2055524920717565727920666f72206e6f60008201527f6e6578697374656e7420746f6b656e0000000000000000000000000000000000602082015250565b6000612cd3602f83612112565b9150612cde82612c77565b604082019050919050565b60006020820190508181036000830152612d0281612cc6565b9050919050565b600081905092915050565b6000612d1f82612107565b612d298185612d09565b9350612d39818560208601612123565b80840191505092915050565b6000612d518285612d14565b9150612d5d8284612d14565b91508190509392505050565b7f757365722061646472657373206973206e6f74206f6e2077686974656c697374600082015250565b6000612d9f602083612112565b9150612daa82612d69565b602082019050919050565b60006020820190508181036000830152612dce81612d92565b9050919050565b7f6e6f7420656e6f75676874206574682073656e74000000000000000000000000600082015250565b6000612e0b601483612112565b9150612e1682612dd5565b602082019050919050565b60006020820190508181036000830152612e3a81612dfe565b9050919050565b7f63616e2774206d696e74206d6f7265207468616e2035206e667473206475726960008201527f6e67207072652d73616c65000000000000000000000000000000000000000000602082015250565b6000612e9d602b83612112565b9150612ea882612e41565b604082019050919050565b60006020820190508181036000830152612ecc81612e90565b9050919050565b7f6e6f206d6f7265206e66747320617661696c61626c6520666f72207072652d7360008201527f616c650000000000000000000000000000000000000000000000000000000000602082015250565b6000612f2f602383612112565b9150612f3a82612ed3565b604082019050919050565b60006020820190508181036000830152612f5e81612f22565b9050919050565b600081519050612f74816121c2565b92915050565b600060208284031215612f9057612f8f61200e565b5b6000612f9e84828501612f65565b91505092915050565b7f6d617820616d6f756e7420796f752063616e20686176652069732035206e667460008201527f7320647572696e67207072652d73616c65000000000000000000000000000000602082015250565b6000613003603183612112565b915061300e82612fa7565b604082019050919050565b6000602082019050818103600083015261303281612ff6565b9050919050565b7f4552433732313a206d696e7420746f20746865207a65726f2061646472657373600082015250565b600061306f602083612112565b915061307a82613039565b602082019050919050565b6000602082019050818103600083015261309e81613062565b9050919050565b7f4552433732313a20746f6b656e20616c7265616479206d696e74656400000000600082015250565b60006130db601c83612112565b91506130e6826130a5565b602082019050919050565b6000602082019050818103600083015261310a816130ce565b9050919050565b600061311c826120d3565b9150613127836120d3565b9250827fffffffffffffffffffffffffffffffffffffffffffffffffffffffffffffffff0382111561315c5761315b612988565b5b828201905092915050565b7f4552433732313a206f70657261746f7220717565727920666f72206e6f6e657860008201527f697374656e7420746f6b656e0000000000000000000000000000000000000000602082015250565b60006131c3602c83612112565b91506131ce82613167565b604082019050919050565b600060208201905081810360008301526131f2816131b6565b9050919050565b7f4552433732313a207472616e73666572206f6620746f6b656e2074686174206960008201527f73206e6f74206f776e0000000000000000000000000000000000000000000000602082015250565b6000613255602983612112565b9150613260826131f9565b604082019050919050565b6000602082019050818103600083015261328481613248565b9050919050565b7f4552433732313a207472616e7366657220746f20746865207a65726f2061646460008201527f7265737300000000000000000000000000000000000000000000000000000000602082015250565b60006132e7602483612112565b91506132f28261328b565b604082019050919050565b60006020820190508181036000830152613316816132da565b9050919050565b6000613328826120d3565b9150613333836120d3565b92508282101561334657613345612988565b5b828203905092915050565b7f4552433732313a20617070726f766520746f2063616c6c657200000000000000600082015250565b6000613387601983612112565b915061339282613351565b602082019050919050565b600060208201905081810360008301526133b68161337a565b9050919050565b7f4552433732313a207472616e7366657220746f206e6f6e20455243373231526560008201527f63656976657220696d706c656d656e7465720000000000000000000000000000602082015250565b6000613419603283612112565b9150613424826133bd565b604082019050919050565b600060208201905081810360008301526134488161340c565b9050919050565b7f4e487b7100000000000000000000000000000000000000000000000000000000600052601260045260246000fd5b6000613489826120d3565b9150613494836120d3565b9250826134a4576134a361344f565b5b828204905092915050565b60006134ba826120d3565b91506134c5836120d3565b9250826134d5576134d461344f565b5b828206905092915050565b600081519050919050565b600082825260208201905092915050565b6000613507826134e0565b61351181856134eb565b9350613521818560208601612123565b61352a81612156565b840191505092915050565b600060808201905061354a600083018761224d565b613557602083018661224d565b61356460408301856120dd565b818103606083015261357681846134fc565b905095945050505050565b60008151905061359081612044565b92915050565b6000602082840312156135ac576135ab61200e565b5b60006135ba84828501613581565b9150509291505056fea2646970667358221220fabd8236c0f3ba63229fbe529963a01b77eaf2fd87250c95852b7c9aff8c810f64736f6c63430008090033",
  "linkReferences": {},
  "deployedLinkReferences": {}
}